{
  "_format": "hh-sol-artifact-1",
  "contractName": "MessageStorage",
  "sourceName": "contracts/MessageStorage.sol",
  "abi": [
    {
      "inputs": [
        {
          "internalType": "string",
          "name": "initialMessage",
          "type": "string"
        }
      ],
      "stateMutability": "nonpayable",
      "type": "constructor"
    },
    {
      "inputs": [],
      "name": "getAdmin",
      "outputs": [
        {
          "internalType": "address",
          "name": "",
          "type": "address"
        }
      ],
      "stateMutability": "view",
      "type": "function"
    },
    {
      "inputs": [],
      "name": "getMessage",
      "outputs": [
        {
          "internalType": "string",
          "name": "",
          "type": "string"
        }
      ],
      "stateMutability": "view",
      "type": "function"
    },
    {
      "inputs": [
        {
          "internalType": "string",
          "name": "newMessage",
          "type": "string"
        }
      ],
      "name": "setMessage",
      "outputs": [],
      "stateMutability": "nonpayable",
      "type": "function"
    }
  ],
  "bytecode": "0x60806040523480156200001157600080fd5b5060405162000e0438038062000e04833981810160405281019062000037919062000224565b8060009081620000489190620004c0565b5033600160006101000a81548173ffffffffffffffffffffffffffffffffffffffff021916908373ffffffffffffffffffffffffffffffffffffffff16021790555050620005a7565b6000604051905090565b600080fd5b600080fd5b600080fd5b600080fd5b6000601f19601f8301169050919050565b7f4e487b7100000000000000000000000000000000000000000000000000000000600052604160045260246000fd5b620000fa82620000af565b810181811067ffffffffffffffff821117156200011c576200011b620000c0565b5b80604052505050565b60006200013162000091565b90506200013f8282620000ef565b919050565b600067ffffffffffffffff821115620001625762000161620000c0565b5b6200016d82620000af565b9050602081019050919050565b60005b838110156200019a5780820151818401526020810190506200017d565b60008484015250505050565b6000620001bd620001b78462000144565b62000125565b905082815260208101848484011115620001dc57620001db620000aa565b5b620001e98482856200017a565b509392505050565b600082601f830112620002095762000208620000a5565b5b81516200021b848260208601620001a6565b91505092915050565b6000602082840312156200023d576200023c6200009b565b5b600082015167ffffffffffffffff8111156200025e576200025d620000a0565b5b6200026c84828501620001f1565b91505092915050565b600081519050919050565b7f4e487b7100000000000000000000000000000000000000000000000000000000600052602260045260246000fd5b60006002820490506001821680620002c857607f821691505b602082108103620002de57620002dd62000280565b5b50919050565b60008190508160005260206000209050919050565b60006020601f8301049050919050565b600082821b905092915050565b600060088302620003487fffffffffffffffffffffffffffffffffffffffffffffffffffffffffffffffff8262000309565b62000354868362000309565b95508019841693508086168417925050509392505050565b6000819050919050565b6000819050919050565b6000620003a16200039b62000395846200036c565b62000376565b6200036c565b9050919050565b6000819050919050565b620003bd8362000380565b620003d5620003cc82620003a8565b84845462000316565b825550505050565b600090565b620003ec620003dd565b620003f9818484620003b2565b505050565b5b81811015620004215762000415600082620003e2565b600181019050620003ff565b5050565b601f82111562000470576200043a81620002e4565b6200044584620002f9565b8101602085101562000455578190505b6200046d6200046485620002f9565b830182620003fe565b50505b505050565b600082821c905092915050565b6000620004956000198460080262000475565b1980831691505092915050565b6000620004b0838362000482565b9150826002028217905092915050565b620004cb8262000275565b67ffffffffffffffff811115620004e757620004e6620000c0565b5b620004f38254620002af565b6200050082828562000425565b600060209050601f83116001811462000538576000841562000523578287015190505b6200052f8582620004a2565b8655506200059f565b601f1984166200054886620002e4565b60005b8281101562000572578489015182556001820191506020850194506020810190506200054b565b868310156200059257848901516200058e601f89168262000482565b8355505b6001600288020188555050505b505050505050565b61084d80620005b76000396000f3fe608060405234801561001057600080fd5b50600436106100415760003560e01c8063368b8772146100465780636e9960c314610062578063ce6d41de14610080575b600080fd5b610060600480360381019061005b9190610357565b61009e565b005b61006a610141565b60405161007791906103e1565b60405180910390f35b61008861016b565b604051610095919061047b565b60405180910390f35b600160009054906101000a900473ffffffffffffffffffffffffffffffffffffffff1673ffffffffffffffffffffffffffffffffffffffff163373ffffffffffffffffffffffffffffffffffffffff161461012e576040517f08c379a00000000000000000000000000000000000000000000000000000000081526004016101259061050f565b60405180910390fd5b806000908161013d9190610745565b5050565b6000600160009054906101000a900473ffffffffffffffffffffffffffffffffffffffff16905090565b60606000805461017a9061055e565b80601f01602080910402602001604051908101604052809291908181526020018280546101a69061055e565b80156101f35780601f106101c8576101008083540402835291602001916101f3565b820191906000526020600020905b8154815290600101906020018083116101d657829003601f168201915b5050505050905090565b6000604051905090565b600080fd5b600080fd5b600080fd5b600080fd5b6000601f19601f8301169050919050565b7f4e487b7100000000000000000000000000000000000000000000000000000000600052604160045260246000fd5b6102648261021b565b810181811067ffffffffffffffff821117156102835761028261022c565b5b80604052505050565b60006102966101fd565b90506102a2828261025b565b919050565b600067ffffffffffffffff8211156102c2576102c161022c565b5b6102cb8261021b565b9050602081019050919050565b82818337600083830152505050565b60006102fa6102f5846102a7565b61028c565b90508281526020810184848401111561031657610315610216565b5b6103218482856102d8565b509392505050565b600082601f83011261033e5761033d610211565b5b813561034e8482602086016102e7565b91505092915050565b60006020828403121561036d5761036c610207565b5b600082013567ffffffffffffffff81111561038b5761038a61020c565b5b61039784828501610329565b91505092915050565b600073ffffffffffffffffffffffffffffffffffffffff82169050919050565b60006103cb826103a0565b9050919050565b6103db816103c0565b82525050565b60006020820190506103f660008301846103d2565b92915050565b600081519050919050565b600082825260208201905092915050565b60005b8381101561043657808201518184015260208101905061041b565b60008484015250505050565b600061044d826103fc565b6104578185610407565b9350610467818560208601610418565b6104708161021b565b840191505092915050565b600060208201905081810360008301526104958184610442565b905092915050565b7f4f6e6c792061646d696e2063616e2063616c6c20746869732066756e6374696f60008201527f6e00000000000000000000000000000000000000000000000000000000000000602082015250565b60006104f9602183610407565b91506105048261049d565b604082019050919050565b60006020820190508181036000830152610528816104ec565b9050919050565b7f4e487b7100000000000000000000000000000000000000000000000000000000600052602260045260246000fd5b6000600282049050600182168061057657607f821691505b6020821081036105895761058861052f565b5b50919050565b60008190508160005260206000209050919050565b60006020601f8301049050919050565b600082821b905092915050565b6000600883026105f17fffffffffffffffffffffffffffffffffffffffffffffffffffffffffffffffff826105b4565b6105fb86836105b4565b95508019841693508086168417925050509392505050565b6000819050919050565b6000819050919050565b600061064261063d61063884610613565b61061d565b610613565b9050919050565b6000819050919050565b61065c83610627565b61067061066882610649565b8484546105c1565b825550505050565b600090565b610685610678565b610690818484610653565b505050565b5b818110156106b4576106a960008261067d565b600181019050610696565b5050565b601f8211156106f9576106ca8161058f565b6106d3846105a4565b810160208510156106e2578190505b6106f66106ee856105a4565b830182610695565b50505b505050565b600082821c905092915050565b600061071c600019846008026106fe565b1980831691505092915050565b6000610735838361070b565b9150826002028217905092915050565b61074e826103fc565b67ffffffffffffffff8111156107675761076661022c565b5b610771825461055e565b61077c8282856106b8565b600060209050601f8311600181146107af576000841561079d578287015190505b6107a78582610729565b86555061080f565b601f1984166107bd8661058f565b60005b828110156107e5578489015182556001820191506020850194506020810190506107c0565b8683101561080257848901516107fe601f89168261070b565b8355505b6001600288020188555050505b50505050505056fea26469706673582212206b3dca380097006dadc396a42fe2b5aaf3f2fd1b91219d086bbae3cfab44de2164736f6c63430008180033",
  "linkReferences": {},
  "deployedLinkReferences": {}
}